{
  "_format": "hh-sol-artifact-1",
  "contractName": "MyEpicNFT",
  "sourceName": "contracts/MyEpicNFT.sol",
  "abi": [
    {
      "inputs": [],
      "stateMutability": "nonpayable",
      "type": "constructor"
    },
    {
      "anonymous": false,
      "inputs": [
        {
          "indexed": true,
          "internalType": "address",
          "name": "owner",
          "type": "address"
        },
        {
          "indexed": true,
          "internalType": "address",
          "name": "approved",
          "type": "address"
        },
        {
          "indexed": true,
          "internalType": "uint256",
          "name": "tokenId",
          "type": "uint256"
        }
      ],
      "name": "Approval",
      "type": "event"
    },
    {
      "anonymous": false,
      "inputs": [
        {
          "indexed": true,
          "internalType": "address",
          "name": "owner",
          "type": "address"
        },
        {
          "indexed": true,
          "internalType": "address",
          "name": "operator",
          "type": "address"
        },
        {
          "indexed": false,
          "internalType": "bool",
          "name": "approved",
          "type": "bool"
        }
      ],
      "name": "ApprovalForAll",
      "type": "event"
    },
    {
      "anonymous": false,
      "inputs": [
        {
          "indexed": false,
          "internalType": "address",
          "name": "sender",
          "type": "address"
        },
        {
          "indexed": false,
          "internalType": "uint256",
          "name": "tokenId",
          "type": "uint256"
        }
      ],
      "name": "CustomNFTMinted",
      "type": "event"
    },
    {
      "anonymous": false,
      "inputs": [
        {
          "indexed": true,
          "internalType": "address",
          "name": "from",
          "type": "address"
        },
        {
          "indexed": true,
          "internalType": "address",
          "name": "to",
          "type": "address"
        },
        {
          "indexed": true,
          "internalType": "uint256",
          "name": "tokenId",
          "type": "uint256"
        }
      ],
      "name": "Transfer",
      "type": "event"
    },
    {
      "inputs": [
        {
          "internalType": "address",
          "name": "to",
          "type": "address"
        },
        {
          "internalType": "uint256",
          "name": "tokenId",
          "type": "uint256"
        }
      ],
      "name": "approve",
      "outputs": [],
      "stateMutability": "nonpayable",
      "type": "function"
    },
    {
      "inputs": [
        {
          "internalType": "address",
          "name": "owner",
          "type": "address"
        }
      ],
      "name": "balanceOf",
      "outputs": [
        {
          "internalType": "uint256",
          "name": "",
          "type": "uint256"
        }
      ],
      "stateMutability": "view",
      "type": "function"
    },
    {
      "inputs": [
        {
          "internalType": "string",
          "name": "myName",
          "type": "string"
        }
      ],
      "name": "customNFT",
      "outputs": [],
      "stateMutability": "nonpayable",
      "type": "function"
    },
    {
      "inputs": [
        {
          "internalType": "uint256",
          "name": "tokenId",
          "type": "uint256"
        }
      ],
      "name": "getApproved",
      "outputs": [
        {
          "internalType": "address",
          "name": "",
          "type": "address"
        }
      ],
      "stateMutability": "view",
      "type": "function"
    },
    {
      "inputs": [
        {
          "internalType": "address",
          "name": "owner",
          "type": "address"
        },
        {
          "internalType": "address",
          "name": "operator",
          "type": "address"
        }
      ],
      "name": "isApprovedForAll",
      "outputs": [
        {
          "internalType": "bool",
          "name": "",
          "type": "bool"
        }
      ],
      "stateMutability": "view",
      "type": "function"
    },
    {
      "inputs": [],
      "name": "makeAnEpicNFT",
      "outputs": [],
      "stateMutability": "nonpayable",
      "type": "function"
    },
    {
      "inputs": [],
      "name": "name",
      "outputs": [
        {
          "internalType": "string",
          "name": "",
          "type": "string"
        }
      ],
      "stateMutability": "view",
      "type": "function"
    },
    {
      "inputs": [
        {
          "internalType": "uint256",
          "name": "tokenId",
          "type": "uint256"
        }
      ],
      "name": "ownerOf",
      "outputs": [
        {
          "internalType": "address",
          "name": "",
          "type": "address"
        }
      ],
      "stateMutability": "view",
      "type": "function"
    },
    {
      "inputs": [
        {
          "internalType": "address",
          "name": "from",
          "type": "address"
        },
        {
          "internalType": "address",
          "name": "to",
          "type": "address"
        },
        {
          "internalType": "uint256",
          "name": "tokenId",
          "type": "uint256"
        }
      ],
      "name": "safeTransferFrom",
      "outputs": [],
      "stateMutability": "nonpayable",
      "type": "function"
    },
    {
      "inputs": [
        {
          "internalType": "address",
          "name": "from",
          "type": "address"
        },
        {
          "internalType": "address",
          "name": "to",
          "type": "address"
        },
        {
          "internalType": "uint256",
          "name": "tokenId",
          "type": "uint256"
        },
        {
          "internalType": "bytes",
          "name": "_data",
          "type": "bytes"
        }
      ],
      "name": "safeTransferFrom",
      "outputs": [],
      "stateMutability": "nonpayable",
      "type": "function"
    },
    {
      "inputs": [
        {
          "internalType": "address",
          "name": "operator",
          "type": "address"
        },
        {
          "internalType": "bool",
          "name": "approved",
          "type": "bool"
        }
      ],
      "name": "setApprovalForAll",
      "outputs": [],
      "stateMutability": "nonpayable",
      "type": "function"
    },
    {
      "inputs": [
        {
          "internalType": "bytes4",
          "name": "interfaceId",
          "type": "bytes4"
        }
      ],
      "name": "supportsInterface",
      "outputs": [
        {
          "internalType": "bool",
          "name": "",
          "type": "bool"
        }
      ],
      "stateMutability": "view",
      "type": "function"
    },
    {
      "inputs": [],
      "name": "symbol",
      "outputs": [
        {
          "internalType": "string",
          "name": "",
          "type": "string"
        }
      ],
      "stateMutability": "view",
      "type": "function"
    },
    {
      "inputs": [
        {
          "internalType": "uint256",
          "name": "tokenId",
          "type": "uint256"
        }
      ],
      "name": "tokenURI",
      "outputs": [
        {
          "internalType": "string",
          "name": "",
          "type": "string"
        }
      ],
      "stateMutability": "view",
      "type": "function"
    },
    {
      "inputs": [
        {
          "internalType": "address",
          "name": "from",
          "type": "address"
        },
        {
          "internalType": "address",
          "name": "to",
          "type": "address"
        },
        {
          "internalType": "uint256",
          "name": "tokenId",
          "type": "uint256"
        }
      ],
      "name": "transferFrom",
      "outputs": [],
      "stateMutability": "nonpayable",
      "type": "function"
    }
  ],
  "bytecode": "0x6080604052603260085560405180610160016040528061012f815260200162003ee461012f9139600990805190602001906200003d92919062000257565b506040518060400160405280600d81526020017f3c2f746578743e3c2f7376673e00000000000000000000000000000000000000815250600a90805190602001906200008b92919062000257565b503480156200009957600080fd5b506040518060400160405280600981526020017f5371756172654e465400000000000000000000000000000000000000000000008152506040518060400160405280600681526020017f535155415245000000000000000000000000000000000000000000000000000081525081600090805190602001906200011e92919062000257565b5080600190805190602001906200013792919062000257565b505050620001856040518060400160405280601e81526020017f54686973206973206d79204e465420636f6e74726163742e20576f61682100008152506200018b60201b62000d3c1760201c565b62000434565b6200022b81604051602401620001a2919062000348565b6040516020818303038152906040527f41304fac000000000000000000000000000000000000000000000000000000007bffffffffffffffffffffffffffffffffffffffffffffffffffffffff19166020820180517bffffffffffffffffffffffffffffffffffffffffffffffffffffffff83818316178352505050506200022e60201b60201c565b50565b60008151905060006a636f6e736f6c652e6c6f679050602083016000808483855afa5050505050565b8280546200026590620003be565b90600052602060002090601f016020900481019282620002895760008555620002d5565b82601f10620002a457805160ff1916838001178555620002d5565b82800160010185558215620002d5579182015b82811115620002d4578251825591602001919060010190620002b7565b5b509050620002e49190620002e8565b5090565b5b8082111562000303576000816000905550600101620002e9565b5090565b600062000314826200036c565b62000320818562000377565b93506200033281856020860162000388565b6200033d8162000423565b840191505092915050565b6000602082019050818103600083015262000364818462000307565b905092915050565b600081519050919050565b600082825260208201905092915050565b60005b83811015620003a85780820151818401526020810190506200038b565b83811115620003b8576000848401525b50505050565b60006002820490506001821680620003d757607f821691505b60208210811415620003ee57620003ed620003f4565b5b50919050565b7f4e487b7100000000000000000000000000000000000000000000000000000000600052602260045260246000fd5b6000601f19601f8301169050919050565b613aa080620004446000396000f3fe608060405234801561001057600080fd5b50600436106100f55760003560e01c806370a0823111610097578063c87b56dd11610066578063c87b56dd14610282578063de9d132f146102b2578063e985e9c5146102bc578063f5ca0798146102ec576100f5565b806370a08231146101fc57806395d89b411461022c578063a22cb4651461024a578063b88d4fde14610266576100f5565b8063095ea7b3116100d3578063095ea7b31461017857806323b872dd1461019457806342842e0e146101b05780636352211e146101cc576100f5565b806301ffc9a7146100fa57806306fdde031461012a578063081812fc14610148575b600080fd5b610114600480360381019061010f9190612169565b610308565b60405161012191906127fb565b60405180910390f35b6101326103ea565b60405161013f9190612816565b60405180910390f35b610162600480360381019061015d91906121fc565b61047c565b60405161016f919061276b565b60405180910390f35b610192600480360381019061018d919061212d565b610501565b005b6101ae60048036038101906101a99190612027565b610619565b005b6101ca60048036038101906101c59190612027565b610679565b005b6101e660048036038101906101e191906121fc565b610699565b6040516101f3919061276b565b60405180910390f35b61021660048036038101906102119190611fc2565b61074b565b6040516102239190612a96565b60405180910390f35b610234610803565b6040516102419190612816565b60405180910390f35b610264600480360381019061025f91906120f1565b610895565b005b610280600480360381019061027b9190612076565b6108ab565b005b61029c600480360381019061029791906121fc565b61090d565b6040516102a99190612816565b60405180910390f35b6102ba610a5f565b005b6102d660048036038101906102d19190611feb565b610acc565b6040516102e391906127fb565b60405180910390f35b610306600480360381019061030191906121bb565b610b60565b005b60007f80ac58cd000000000000000000000000000000000000000000000000000000007bffffffffffffffffffffffffffffffffffffffffffffffffffffffff1916827bffffffffffffffffffffffffffffffffffffffffffffffffffffffff191614806103d357507f5b5e139f000000000000000000000000000000000000000000000000000000007bffffffffffffffffffffffffffffffffffffffffffffffffffffffff1916827bffffffffffffffffffffffffffffffffffffffffffffffffffffffff1916145b806103e357506103e282610dd5565b5b9050919050565b6060600080546103f990612d5b565b80601f016020809104026020016040519081016040528092919081815260200182805461042590612d5b565b80156104725780601f1061044757610100808354040283529160200191610472565b820191906000526020600020905b81548152906001019060200180831161045557829003601f168201915b5050505050905090565b600061048782610e3f565b6104c6576040517f08c379a00000000000000000000000000000000000000000000000000000000081526004016104bd906129f6565b60405180910390fd5b6004600083815260200190815260200160002060009054906101000a900473ffffffffffffffffffffffffffffffffffffffff169050919050565b600061050c82610699565b90508073ffffffffffffffffffffffffffffffffffffffff168373ffffffffffffffffffffffffffffffffffffffff16141561057d576040517f08c379a000000000000000000000000000000000000000000000000000000000815260040161057490612a36565b60405180910390fd5b8073ffffffffffffffffffffffffffffffffffffffff1661059c610eab565b73ffffffffffffffffffffffffffffffffffffffff1614806105cb57506105ca816105c5610eab565b610acc565b5b61060a576040517f08c379a000000000000000000000000000000000000000000000000000000000815260040161060190612936565b60405180910390fd5b6106148383610eb3565b505050565b61062a610624610eab565b82610f6c565b610669576040517f08c379a000000000000000000000000000000000000000000000000000000000815260040161066090612a56565b60405180910390fd5b61067483838361104a565b505050565b610694838383604051806020016040528060008152506108ab565b505050565b6000806002600084815260200190815260200160002060009054906101000a900473ffffffffffffffffffffffffffffffffffffffff169050600073ffffffffffffffffffffffffffffffffffffffff168173ffffffffffffffffffffffffffffffffffffffff161415610742576040517f08c379a000000000000000000000000000000000000000000000000000000000815260040161073990612976565b60405180910390fd5b80915050919050565b60008073ffffffffffffffffffffffffffffffffffffffff168273ffffffffffffffffffffffffffffffffffffffff1614156107bc576040517f08c379a00000000000000000000000000000000000000000000000000000000081526004016107b390612956565b60405180910390fd5b600360008373ffffffffffffffffffffffffffffffffffffffff1673ffffffffffffffffffffffffffffffffffffffff168152602001908152602001600020549050919050565b60606001805461081290612d5b565b80601f016020809104026020016040519081016040528092919081815260200182805461083e90612d5b565b801561088b5780601f106108605761010080835404028352916020019161088b565b820191906000526020600020905b81548152906001019060200180831161086e57829003601f168201915b5050505050905090565b6108a76108a0610eab565b83836112b1565b5050565b6108bc6108b6610eab565b83610f6c565b6108fb576040517f08c379a00000000000000000000000000000000000000000000000000000000081526004016108f290612a56565b60405180910390fd5b6109078484848461141e565b50505050565b606061091882610e3f565b610957576040517f08c379a000000000000000000000000000000000000000000000000000000000815260040161094e906129d6565b60405180910390fd5b600060066000848152602001908152602001600020805461097790612d5b565b80601f01602080910402602001604051908101604052809291908181526020018280546109a390612d5b565b80156109f05780601f106109c5576101008083540402835291602001916109f0565b820191906000526020600020905b8154815290600101906020018083116109d357829003601f168201915b505050505090506000610a0161147a565b9050600081511415610a17578192505050610a5a565b600082511115610a4c578082604051602001610a34929190612699565b60405160208183030381529060405292505050610a5a565b610a5584611491565b925050505b919050565b6000610a6b6007611538565b9050610a773382611546565b610a9c81604051806104c0016040528061049581526020016135d66104959139611564565b610abf6040518060600160405280602581526020016135716025913982336115d8565b610ac96007611677565b50565b6000600560008473ffffffffffffffffffffffffffffffffffffffff1673ffffffffffffffffffffffffffffffffffffffff16815260200190815260200160002060008373ffffffffffffffffffffffffffffffffffffffff1673ffffffffffffffffffffffffffffffffffffffff16815260200190815260200160002060009054906101000a900460ff16905092915050565b6000610b6c6007611538565b90508060085411610bb2576040517f08c379a0000000000000000000000000000000000000000000000000000000008152600401610ba990612a76565b60405180910390fd5b6000600983600a604051602001610bcb939291906126bd565b60405160208183030381529060405290506000610c1084610beb8461168d565b604051602001610bfc9291906126ee565b60405160208183030381529060405261168d565b9050600081604051602001610c259190612749565b6040516020818303038152906040529050610c746040518060400160405280601581526020017f0a2d2d2d2d2d2d2d2d2d2d2d2d2d2d2d2d2d2d2d2d0000000000000000000000815250610d3c565b610c7d81610d3c565b610cbb6040518060400160405280601581526020017f2d2d2d2d2d2d2d2d2d2d2d2d2d2d2d2d2d2d2d2d0a0000000000000000000000815250610d3c565b610cc53385611546565b610ccf8482611564565b610cf26040518060600160405280602581526020016135716025913985336115d8565b7f8629c6ca6849491f3ecb39d619f14488dd754ea04b5ded8337c862614c2d8c923385604051610d239291906127d2565b60405180910390a1610d356007611677565b5050505050565b610dd281604051602401610d509190612816565b6040516020818303038152906040527f41304fac000000000000000000000000000000000000000000000000000000007bffffffffffffffffffffffffffffffffffffffffffffffffffffffff19166020820180517bffffffffffffffffffffffffffffffffffffffffffffffffffffffff8381831617835250505050611817565b50565b60007f01ffc9a7000000000000000000000000000000000000000000000000000000007bffffffffffffffffffffffffffffffffffffffffffffffffffffffff1916827bffffffffffffffffffffffffffffffffffffffffffffffffffffffff1916149050919050565b60008073ffffffffffffffffffffffffffffffffffffffff166002600084815260200190815260200160002060009054906101000a900473ffffffffffffffffffffffffffffffffffffffff1673ffffffffffffffffffffffffffffffffffffffff1614159050919050565b600033905090565b816004600083815260200190815260200160002060006101000a81548173ffffffffffffffffffffffffffffffffffffffff021916908373ffffffffffffffffffffffffffffffffffffffff160217905550808273ffffffffffffffffffffffffffffffffffffffff16610f2683610699565b73ffffffffffffffffffffffffffffffffffffffff167f8c5be1e5ebec7d5bd14f71427d1e84f3dd0314c0f7b2291e5b200ac8c7c3b92560405160405180910390a45050565b6000610f7782610e3f565b610fb6576040517f08c379a0000000000000000000000000000000000000000000000000000000008152600401610fad90612916565b60405180910390fd5b6000610fc183610699565b90508073ffffffffffffffffffffffffffffffffffffffff168473ffffffffffffffffffffffffffffffffffffffff16148061103057508373ffffffffffffffffffffffffffffffffffffffff166110188461047c565b73ffffffffffffffffffffffffffffffffffffffff16145b8061104157506110408185610acc565b5b91505092915050565b8273ffffffffffffffffffffffffffffffffffffffff1661106a82610699565b73ffffffffffffffffffffffffffffffffffffffff16146110c0576040517f08c379a00000000000000000000000000000000000000000000000000000000081526004016110b790612896565b60405180910390fd5b600073ffffffffffffffffffffffffffffffffffffffff168273ffffffffffffffffffffffffffffffffffffffff161415611130576040517f08c379a0000000000000000000000000000000000000000000000000000000008152600401611127906128d6565b60405180910390fd5b61113b838383611840565b611146600082610eb3565b6001600360008573ffffffffffffffffffffffffffffffffffffffff1673ffffffffffffffffffffffffffffffffffffffff16815260200190815260200160002060008282546111969190612c71565b925050819055506001600360008473ffffffffffffffffffffffffffffffffffffffff1673ffffffffffffffffffffffffffffffffffffffff16815260200190815260200160002060008282546111ed9190612b90565b92505081905550816002600083815260200190815260200160002060006101000a81548173ffffffffffffffffffffffffffffffffffffffff021916908373ffffffffffffffffffffffffffffffffffffffff160217905550808273ffffffffffffffffffffffffffffffffffffffff168473ffffffffffffffffffffffffffffffffffffffff167fddf252ad1be2c89b69c2b068fc378daa952ba7f163c4a11628f55a4df523b3ef60405160405180910390a46112ac838383611845565b505050565b8173ffffffffffffffffffffffffffffffffffffffff168373ffffffffffffffffffffffffffffffffffffffff161415611320576040517f08c379a0000000000000000000000000000000000000000000000000000000008152600401611317906128f6565b60405180910390fd5b80600560008573ffffffffffffffffffffffffffffffffffffffff1673ffffffffffffffffffffffffffffffffffffffff16815260200190815260200160002060008473ffffffffffffffffffffffffffffffffffffffff1673ffffffffffffffffffffffffffffffffffffffff16815260200190815260200160002060006101000a81548160ff0219169083151502179055508173ffffffffffffffffffffffffffffffffffffffff168373ffffffffffffffffffffffffffffffffffffffff167f17307eab39ab6107e8899845ad3d59bd9653f200f220920489ca2b5937696c318360405161141191906127fb565b60405180910390a3505050565b61142984848461104a565b6114358484848461184a565b611474576040517f08c379a000000000000000000000000000000000000000000000000000000000815260040161146b90612876565b60405180910390fd5b50505050565b606060405180602001604052806000815250905090565b606061149c82610e3f565b6114db576040517f08c379a00000000000000000000000000000000000000000000000000000000081526004016114d290612a16565b60405180910390fd5b60006114e561147a565b905060008151116115055760405180602001604052806000815250611530565b8061150f846119e1565b604051602001611520929190612699565b6040516020818303038152906040525b915050919050565b600081600001549050919050565b611560828260405180602001604052806000815250611b8e565b5050565b61156d82610e3f565b6115ac576040517f08c379a00000000000000000000000000000000000000000000000000000000081526004016115a390612996565b60405180910390fd5b806006600084815260200190815260200160002090805190602001906115d3929190611de6565b505050565b6116728383836040516024016115f093929190612838565b6040516020818303038152906040527fe3849f79000000000000000000000000000000000000000000000000000000007bffffffffffffffffffffffffffffffffffffffffffffffffffffffff19166020820180517bffffffffffffffffffffffffffffffffffffffffffffffffffffffff8381831617835250505050611817565b505050565b6001816000016000828254019250508190555050565b60606000825114156116b057604051806020016040528060008152509050611812565b600060405180606001604052806040815260200161359660409139905060006003600285516116df9190612b90565b6116e99190612be6565b60046116f59190612c17565b67ffffffffffffffff811115611734577f4e487b7100000000000000000000000000000000000000000000000000000000600052604160045260246000fd5b6040519080825280601f01601f1916602001820160405280156117665781602001600182028036833780820191505090505b509050600182016020820185865187015b808210156117d2576003820191508151603f8160121c168501518453600184019350603f81600c1c168501518453600184019350603f8160061c168501518453600184019350603f8116850151845360018401935050611777565b50506003865106600181146117ee576002811461180157611809565b603d6001830353603d6002830353611809565b603d60018303535b50505080925050505b919050565b60008151905060006a636f6e736f6c652e6c6f679050602083016000808483855afa5050505050565b505050565b505050565b600061186b8473ffffffffffffffffffffffffffffffffffffffff16611be9565b156119d4578373ffffffffffffffffffffffffffffffffffffffff1663150b7a02611894610eab565b8786866040518563ffffffff1660e01b81526004016118b69493929190612786565b602060405180830381600087803b1580156118d057600080fd5b505af192505050801561190157506040513d601f19601f820116820180604052508101906118fe9190612192565b60015b611984573d8060008114611931576040519150601f19603f3d011682016040523d82523d6000602084013e611936565b606091505b5060008151141561197c576040517f08c379a000000000000000000000000000000000000000000000000000000000815260040161197390612876565b60405180910390fd5b805181602001fd5b63150b7a0260e01b7bffffffffffffffffffffffffffffffffffffffffffffffffffffffff1916817bffffffffffffffffffffffffffffffffffffffffffffffffffffffff1916149150506119d9565b600190505b949350505050565b60606000821415611a29576040518060400160405280600181526020017f30000000000000000000000000000000000000000000000000000000000000008152509050611b89565b600082905060005b60008214611a5b578080611a4490612dbe565b915050600a82611a549190612be6565b9150611a31565b60008167ffffffffffffffff811115611a9d577f4e487b7100000000000000000000000000000000000000000000000000000000600052604160045260246000fd5b6040519080825280601f01601f191660200182016040528015611acf5781602001600182028036833780820191505090505b5090505b60008514611b8257600182611ae89190612c71565b9150600a85611af79190612e07565b6030611b039190612b90565b60f81b818381518110611b3f577f4e487b7100000000000000000000000000000000000000000000000000000000600052603260045260246000fd5b60200101907effffffffffffffffffffffffffffffffffffffffffffffffffffffffffffff1916908160001a905350600a85611b7b9190612be6565b9450611ad3565b8093505050505b919050565b611b988383611c0c565b611ba5600084848461184a565b611be4576040517f08c379a0000000000000000000000000000000000000000000000000000000008152600401611bdb90612876565b60405180910390fd5b505050565b6000808273ffffffffffffffffffffffffffffffffffffffff163b119050919050565b600073ffffffffffffffffffffffffffffffffffffffff168273ffffffffffffffffffffffffffffffffffffffff161415611c7c576040517f08c379a0000000000000000000000000000000000000000000000000000000008152600401611c73906129b6565b60405180910390fd5b611c8581610e3f565b15611cc5576040517f08c379a0000000000000000000000000000000000000000000000000000000008152600401611cbc906128b6565b60405180910390fd5b611cd160008383611840565b6001600360008473ffffffffffffffffffffffffffffffffffffffff1673ffffffffffffffffffffffffffffffffffffffff1681526020019081526020016000206000828254611d219190612b90565b92505081905550816002600083815260200190815260200160002060006101000a81548173ffffffffffffffffffffffffffffffffffffffff021916908373ffffffffffffffffffffffffffffffffffffffff160217905550808273ffffffffffffffffffffffffffffffffffffffff16600073ffffffffffffffffffffffffffffffffffffffff167fddf252ad1be2c89b69c2b068fc378daa952ba7f163c4a11628f55a4df523b3ef60405160405180910390a4611de260008383611845565b5050565b828054611df290612d5b565b90600052602060002090601f016020900481019282611e145760008555611e5b565b82601f10611e2d57805160ff1916838001178555611e5b565b82800160010185558215611e5b579182015b82811115611e5a578251825591602001919060010190611e3f565b5b509050611e689190611e6c565b5090565b5b80821115611e85576000816000905550600101611e6d565b5090565b6000611e9c611e9784612ad6565b612ab1565b905082815260208101848484011115611eb457600080fd5b611ebf848285612d19565b509392505050565b6000611eda611ed584612b07565b612ab1565b905082815260208101848484011115611ef257600080fd5b611efd848285612d19565b509392505050565b600081359050611f1481613514565b92915050565b600081359050611f298161352b565b92915050565b600081359050611f3e81613542565b92915050565b600081519050611f5381613542565b92915050565b600082601f830112611f6a57600080fd5b8135611f7a848260208601611e89565b91505092915050565b600082601f830112611f9457600080fd5b8135611fa4848260208601611ec7565b91505092915050565b600081359050611fbc81613559565b92915050565b600060208284031215611fd457600080fd5b6000611fe284828501611f05565b91505092915050565b60008060408385031215611ffe57600080fd5b600061200c85828601611f05565b925050602061201d85828601611f05565b9150509250929050565b60008060006060848603121561203c57600080fd5b600061204a86828701611f05565b935050602061205b86828701611f05565b925050604061206c86828701611fad565b9150509250925092565b6000806000806080858703121561208c57600080fd5b600061209a87828801611f05565b94505060206120ab87828801611f05565b93505060406120bc87828801611fad565b925050606085013567ffffffffffffffff8111156120d957600080fd5b6120e587828801611f59565b91505092959194509250565b6000806040838503121561210457600080fd5b600061211285828601611f05565b925050602061212385828601611f1a565b9150509250929050565b6000806040838503121561214057600080fd5b600061214e85828601611f05565b925050602061215f85828601611fad565b9150509250929050565b60006020828403121561217b57600080fd5b600061218984828501611f2f565b91505092915050565b6000602082840312156121a457600080fd5b60006121b284828501611f44565b91505092915050565b6000602082840312156121cd57600080fd5b600082013567ffffffffffffffff8111156121e757600080fd5b6121f384828501611f83565b91505092915050565b60006020828403121561220e57600080fd5b600061221c84828501611fad565b91505092915050565b61222e81612ca5565b82525050565b61223d81612cb7565b82525050565b600061224e82612b4d565b6122588185612b63565b9350612268818560208601612d28565b61227181612ef4565b840191505092915050565b600061228782612b58565b6122918185612b74565b93506122a1818560208601612d28565b6122aa81612ef4565b840191505092915050565b60006122c082612b58565b6122ca8185612b85565b93506122da818560208601612d28565b80840191505092915050565b600081546122f381612d5b565b6122fd8186612b85565b9450600182166000811461231857600181146123295761235c565b60ff1983168652818601935061235c565b61233285612b38565b60005b8381101561235457815481890152600182019150602081019050612335565b838801955050505b50505092915050565b6000612372601383612b85565b915061237d82612f05565b601382019050919050565b6000612395603283612b74565b91506123a082612f2e565b604082019050919050565b60006123b8602583612b74565b91506123c382612f7d565b604082019050919050565b60006123db601c83612b74565b91506123e682612fcc565b602082019050919050565b60006123fe602483612b74565b915061240982612ff5565b604082019050919050565b6000612421601983612b74565b915061242c82613044565b602082019050919050565b6000612444602c83612b74565b915061244f8261306d565b604082019050919050565b6000612467602183612b85565b9150612472826130bc565b602182019050919050565b600061248a603883612b74565b91506124958261310b565b604082019050919050565b60006124ad602a83612b74565b91506124b88261315a565b604082019050919050565b60006124d0602983612b74565b91506124db826131a9565b604082019050919050565b60006124f3602e83612b74565b91506124fe826131f8565b604082019050919050565b6000612516600283612b85565b915061252182613247565b600282019050919050565b6000612539602083612b74565b915061254482613270565b602082019050919050565b600061255c603183612b74565b915061256782613299565b604082019050919050565b600061257f602c83612b74565b915061258a826132e8565b604082019050919050565b60006125a2602f83612b74565b91506125ad82613337565b604082019050919050565b60006125c5602783612b85565b91506125d082613386565b602782019050919050565b60006125e8600a83612b85565b91506125f3826133d5565b600a82019050919050565b600061260b602183612b74565b9150612616826133fe565b604082019050919050565b600061262e601d83612b85565b91506126398261344d565b601d82019050919050565b6000612651603183612b74565b915061265c82613476565b604082019050919050565b6000612674602a83612b74565b915061267f826134c5565b604082019050919050565b61269381612d0f565b82525050565b60006126a582856122b5565b91506126b182846122b5565b91508190509392505050565b60006126c982866122e6565b91506126d582856122b5565b91506126e182846122e6565b9150819050949350505050565b60006126f9826125db565b915061270582856122b5565b915061271082612365565b915061271b8261245a565b9150612726826125b8565b915061273282846122b5565b915061273d82612509565b91508190509392505050565b600061275482612621565b915061276082846122b5565b915081905092915050565b60006020820190506127806000830184612225565b92915050565b600060808201905061279b6000830187612225565b6127a86020830186612225565b6127b5604083018561268a565b81810360608301526127c78184612243565b905095945050505050565b60006040820190506127e76000830185612225565b6127f4602083018461268a565b9392505050565b60006020820190506128106000830184612234565b92915050565b60006020820190508181036000830152612830818461227c565b905092915050565b60006060820190508181036000830152612852818661227c565b9050612861602083018561268a565b61286e6040830184612225565b949350505050565b6000602082019050818103600083015261288f81612388565b9050919050565b600060208201905081810360008301526128af816123ab565b9050919050565b600060208201905081810360008301526128cf816123ce565b9050919050565b600060208201905081810360008301526128ef816123f1565b9050919050565b6000602082019050818103600083015261290f81612414565b9050919050565b6000602082019050818103600083015261292f81612437565b9050919050565b6000602082019050818103600083015261294f8161247d565b9050919050565b6000602082019050818103600083015261296f816124a0565b9050919050565b6000602082019050818103600083015261298f816124c3565b9050919050565b600060208201905081810360008301526129af816124e6565b9050919050565b600060208201905081810360008301526129cf8161252c565b9050919050565b600060208201905081810360008301526129ef8161254f565b9050919050565b60006020820190508181036000830152612a0f81612572565b9050919050565b60006020820190508181036000830152612a2f81612595565b9050919050565b60006020820190508181036000830152612a4f816125fe565b9050919050565b60006020820190508181036000830152612a6f81612644565b9050919050565b60006020820190508181036000830152612a8f81612667565b9050919050565b6000602082019050612aab600083018461268a565b92915050565b6000612abb612acc565b9050612ac78282612d8d565b919050565b6000604051905090565b600067ffffffffffffffff821115612af157612af0612ec5565b5b612afa82612ef4565b9050602081019050919050565b600067ffffffffffffffff821115612b2257612b21612ec5565b5b612b2b82612ef4565b9050602081019050919050565b60008190508160005260206000209050919050565b600081519050919050565b600081519050919050565b600082825260208201905092915050565b600082825260208201905092915050565b600081905092915050565b6000612b9b82612d0f565b9150612ba683612d0f565b9250827fffffffffffffffffffffffffffffffffffffffffffffffffffffffffffffffff03821115612bdb57612bda612e38565b5b828201905092915050565b6000612bf182612d0f565b9150612bfc83612d0f565b925082612c0c57612c0b612e67565b5b828204905092915050565b6000612c2282612d0f565b9150612c2d83612d0f565b9250817fffffffffffffffffffffffffffffffffffffffffffffffffffffffffffffffff0483118215151615612c6657612c65612e38565b5b828202905092915050565b6000612c7c82612d0f565b9150612c8783612d0f565b925082821015612c9a57612c99612e38565b5b828203905092915050565b6000612cb082612cef565b9050919050565b60008115159050919050565b60007fffffffff0000000000000000000000000000000000000000000000000000000082169050919050565b600073ffffffffffffffffffffffffffffffffffffffff82169050919050565b6000819050919050565b82818337600083830152505050565b60005b83811015612d46578082015181840152602081019050612d2b565b83811115612d55576000848401525b50505050565b60006002820490506001821680612d7357607f821691505b60208210811415612d8757612d86612e96565b5b50919050565b612d9682612ef4565b810181811067ffffffffffffffff82111715612db557612db4612ec5565b5b80604052505050565b6000612dc982612d0f565b91507fffffffffffffffffffffffffffffffffffffffffffffffffffffffffffffffff821415612dfc57612dfb612e38565b5b600182019050919050565b6000612e1282612d0f565b9150612e1d83612d0f565b925082612e2d57612e2c612e67565b5b828206905092915050565b7f4e487b7100000000000000000000000000000000000000000000000000000000600052601160045260246000fd5b7f4e487b7100000000000000000000000000000000000000000000000000000000600052601260045260246000fd5b7f4e487b7100000000000000000000000000000000000000000000000000000000600052602260045260246000fd5b7f4e487b7100000000000000000000000000000000000000000000000000000000600052604160045260246000fd5b6000601f19601f8301169050919050565b7f222c20226465736372697074696f6e223a202200000000000000000000000000600082015250565b7f4552433732313a207472616e7366657220746f206e6f6e20455243373231526560008201527f63656976657220696d706c656d656e7465720000000000000000000000000000602082015250565b7f4552433732313a207472616e736665722066726f6d20696e636f72726563742060008201527f6f776e6572000000000000000000000000000000000000000000000000000000602082015250565b7f4552433732313a20746f6b656e20616c7265616479206d696e74656400000000600082015250565b7f4552433732313a207472616e7366657220746f20746865207a65726f2061646460008201527f7265737300000000000000000000000000000000000000000000000000000000602082015250565b7f4552433732313a20617070726f766520746f2063616c6c657200000000000000600082015250565b7f4552433732313a206f70657261746f7220717565727920666f72206e6f6e657860008201527f697374656e7420746f6b656e0000000000000000000000000000000000000000602082015250565b7f54686973206973206d79206465736372697074696f6e205b484152434f44454460008201527f5d00000000000000000000000000000000000000000000000000000000000000602082015250565b7f4552433732313a20617070726f76652063616c6c6572206973206e6f74206f7760008201527f6e6572206e6f7220617070726f76656420666f7220616c6c0000000000000000602082015250565b7f4552433732313a2062616c616e636520717565727920666f7220746865207a6560008201527f726f206164647265737300000000000000000000000000000000000000000000602082015250565b7f4552433732313a206f776e657220717565727920666f72206e6f6e657869737460008201527f656e7420746f6b656e0000000000000000000000000000000000000000000000602082015250565b7f45524337323155524953746f726167653a2055524920736574206f66206e6f6e60008201527f6578697374656e7420746f6b656e000000000000000000000000000000000000602082015250565b7f227d000000000000000000000000000000000000000000000000000000000000600082015250565b7f4552433732313a206d696e7420746f20746865207a65726f2061646472657373600082015250565b7f45524337323155524953746f726167653a2055524920717565727920666f722060008201527f6e6f6e6578697374656e7420746f6b656e000000000000000000000000000000602082015250565b7f4552433732313a20617070726f76656420717565727920666f72206e6f6e657860008201527f697374656e7420746f6b656e0000000000000000000000000000000000000000602082015250565b7f4552433732314d657461646174613a2055524920717565727920666f72206e6f60008201527f6e6578697374656e7420746f6b656e0000000000000000000000000000000000602082015250565b7f222c2022696d616765223a2022646174613a696d6167652f7376672b786d6c3b60008201527f6261736536342c00000000000000000000000000000000000000000000000000602082015250565b7f7b226e616d65223a202200000000000000000000000000000000000000000000600082015250565b7f4552433732313a20617070726f76616c20746f2063757272656e74206f776e6560008201527f7200000000000000000000000000000000000000000000000000000000000000602082015250565b7f646174613a6170706c69636174696f6e2f6a736f6e3b6261736536342c000000600082015250565b7f4552433732313a207472616e736665722063616c6c6572206973206e6f74206f60008201527f776e6572206e6f7220617070726f766564000000000000000000000000000000602082015250565b7f534f4c44204f55543a20546865726527732061206d696e74206c696d6974206f60008201527f66203530204e4654732e00000000000000000000000000000000000000000000602082015250565b61351d81612ca5565b811461352857600080fd5b50565b61353481612cb7565b811461353f57600080fd5b50565b61354b81612cc3565b811461355657600080fd5b50565b61356281612d0f565b811461356d57600080fd5b5056fe416e204e465420772f20494420257320686173206265656e206d696e74656420746f2025734142434445464748494a4b4c4d4e4f505152535455565758595a6162636465666768696a6b6c6d6e6f707172737475767778797a303132333435363738392b2f646174613a6170706c69636174696f6e2f6a736f6e3b6261736536342c65776f6749434167496d3568625755694f6941695132567964476c6d61574e46564567794969774b4943416749434a6b5a584e6a636d6c7764476c766269493649434a6b5a584e6a636d6c7764476c76626942765a69424f526c51694c416f6749434167496d6c745957646c496a6f67496d526864474536615731685a32557663335a6e4b3368746244746959584e6c4e6a51735545684f4d6c7035516a52695633683159336f7761574649556a426a5247393254444e6b4d3252354e544e4e655456325932316a646b31715158644e517a6c365a47316a61556c49516e6c61574535735932356162464659546e646156303477565731474d4746584f446c4a626d684f59566331576c52586248564a527a4673576c685261556c49576e426157475244596a4e6e4f556c715157644e51304636546c52425a3031365658644a616a524c53554e425a306c456548706b5347787a576c513064566c74526e7061553049335355646163474a48647a5a4a534752765956685362453935516d31694d6a55775446646161474a5862484e6c5647396e597a4a57655746585754644a52317032596d355264474d7962445a615647396e54565253643256456332646d56486432597a4e534e574a48565374446155466e53554e424f474e74566d706b5130497a595664534d4746454d476c4e56454633536c4e4a5a324648566e42614d6d677755464e4a654531455157784a61554a745956643463314254536d6c6952305a7159586c4a5a3078364e45744a5130466e535552344d4670596144424a5347633553577056643070545357646c56444270546b524262456c70516d706952305a3659336f7761566c74526e706155306c6e576b6335644746584e576869626c463057573147656c705865484269625655355357307863467048556e4e6155306c6e5a4564574e4752444d57686962553576596a4e4a4f556c744d58426152314a7a576c4e4a4b3156746248706852305a7059554e4355316c5862445a5a56314a6f55454d354d467059614442515a32396e535552344d4670596144424a534763355357706a643070545357646c564442705458704262456c70516d706952305a3659336f7761566c74526e706155306c6e576b6335644746584e576869626c463057573147656c705865484269625655355357307863467048556e4e6155306c6e5a4564574e4752444d57686962553576596a4e4a4f556c744d58426152314a7a576c4e4a4b314a48566a4a6162546c7a595663344f45777a556d786c5346457251326c425a314249556d786c5346466e5a555177615531715157784a6155493155464e4a656b314456576c4a5230357a5756684f656c4254536d6c5a5745357353576c43613249794d58426962555a315a454d7861566c59546d786952327831576c517761574a58624774615233687353576c434d4670596144424d56305a3157544a6f646d4e714d476c6956327872576b643462456c714e5656685231566e556c685362317059536e565a5633683655454d354d467059614442515a32383454444e4f4d6c70364e443069436e304b43673d3da26469706673582212201a9b185447bf0479bb0b6db7ac8060c2884873438a8de7b769bc482a6f99833464736f6c634300080100333c73766720786d6c6e733d27687474703a2f2f7777772e77332e6f72672f323030302f73766727207072657365727665417370656374526174696f3d27784d696e594d696e206d656574272076696577426f783d273020302033353020333530273e3c7374796c653e2e62617365207b2066696c6c3a2077686974653b20666f6e742d66616d696c793a2073657269663b20666f6e742d73697a653a20323470783b207d3c2f7374796c653e3c726563742077696474683d273130302527206865696768743d2731303025272066696c6c3d27626c61636b27202f3e3c7465787420783d273530252720793d273530252720636c6173733d27626173652720646f6d696e616e742d626173656c696e653d276d6964646c652720746578742d616e63686f723d276d6964646c65273e",
  "linkReferences": {},
  "deployedLinkReferences": {}
}